:100000000C9463000C948B000C948B000C948B006C
:100010000C948B000C948B000C948B000C94CF17D9
:100020000C948B000C948B000C948B000C94A219F4
:100030000C948B000C948B000C948B000C948B0014
:100040000C9485170C948B000C9451180C942B185D
:100050000C948B000C948B000C948B000C948B00F4
:100060000C9483180C948B000200000000240027DD
:10007000002A0000000000250028002B00000000DE
:1000800000230026002900040404040404040402DC
:100090000202020202030303030303010204081025
:1000A00020408001020408102001020408102000F2
:1000B0000000080002010000030407000000000027
:1000C000000000005E1A11241FBECFEFD8E0DEBF93
:1000D000CDBF13E0A0E0B1E0E0E8FEE402C005908F
:1000E0000D92A239B107D9F727E0A2E9B3E001C028
:1000F0001D92A631B207E1F710E0C3E6D0E004C0DC
:100100002197FE010E943025C236D107C9F70E940F
:10011000851B0C943E270C940000862FE0918504EB
:10012000F0918604309711F0BA0109940895862F52
:10013000E0918304F0918404309711F0BA0109949E
:100140000895862FE0918104F0918204309711F098
:10015000BA0109940895862FE0917F04F0918004FC
:10016000309711F0BA0109940895862FE0917D042B
:10017000F0917E04309711F0BA0109940895862F0A
:10018000E0917B04F0917C04309711F0BA0109945E
:1001900008950895862F642FE0918704F0918804D4
:1001A000309711F0A90109940895E0918904F09124
:1001B0008A04309709F009940895A0916D06B091D2
:1001C0006E06ED91FC9111970190F081E02D682F62
:1001D000CD0109941F93CF93DF93182FEB018091EA
:1001E0003406909135066817790760F480913206DD
:1001F00090913306C80FD91F188380E0DF91CF910B
:100200001F910895E0916106F0916206309711F414
:1002100081E0F4CF81E08093310680914D0690918A
:100220004E0609958091340690913506C817D90776
:1002300078F7DCCFCF93DF93EC01FB0130E020E0D7
:10024000C901880F991F8C179D0778F44081DB0145
:100250004D93BD0111979181979599279795942B6F
:100260009C932F5F3F4F3296EBCFC901DF91CF9127
:100270000895833081F028F4813099F08230A9F01C
:1002800008958730A9F08830C9F08430B1F48091A6
:1002900080008F7D03C0809180008F7780938000E5
:1002A000089584B58F7784BD089584B58F7DFBCF85
:1002B0008091B0008F778093B00008958091B00056
:1002C0008F7DF9CFCF93DF93282F30E0F901E155EF
:1002D000FF4F8491F901E556FF4FD491F901E95799
:1002E000FF4FC491CC23A1F081110E943901EC2F62
:1002F000F0E0EE0FFF1FE358FF4FA591B491EC9192
:10030000ED2381E090E009F480E0DF91CF91089542
:1003100080E090E0FACF1F93CF93DF93282F30E057
:10032000F901E155FF4F8491F901E556FF4FD49152
:10033000F901E957FF4FC491CC23A9F0162F811181
:100340000E943901EC2FF0E0EE0FFF1FED58FF4F38
:10035000A591B4918FB7F894EC91111108C0D09584
:10036000DE23DC938FBFDF91CF911F910895DE2BA9
:10037000F8CFCF93DF9390E0FC01E556FF4F249137
:1003800089579F4FFC0184918823C9F090E0880F22
:10039000991FFC01E759FF4FA591B491FC01ED585D
:1003A000FF4FC591D49161110DC09FB7F8948C9106
:1003B000209582238C938881282328839FBFDF91F7
:1003C000CF910895623051F49FB7F8943C91822FF9
:1003D000809583238C93E8812E2BEFCF8FB7F894F1
:1003E000EC912E2B2C938FBFEACF8E3008F08E50DD
:1003F0008770806480937C0080917A008064809311
:100400007A0080917A0086FDFCCF809178009091EF
:10041000790008953FB7F8948091FE049091FF040D
:10042000A0910005B091010526B5A89B05C02F3FFE
:1004300019F00196A11DB11D3FBFBA2FA92F982F0A
:100440008827BC01CD01620F711D811D911D42E005
:10045000660F771F881F991F4A95D1F708958F92CD
:100460009F92AF92BF92CF92DF92EF92FF926B0179
:100470007C010E940A024B015C01C114D104E10419
:10048000F104B9F00E940A02681979098A099B09E6
:10049000683E73408105910580F321E0C21AD108BE
:1004A000E108F10888EE880E83E0981EA11CB11CBB
:1004B000E4CFFF90EF90DF90CF90BF90AF909F90F0
:1004C0008F900895AF92BF92CF92DF92EF92FF92FA
:1004D0000F931F93CF93DF93C82FD62F1092E00670
:1004E0001092E1061092E2061092E3061092E406E2
:1004F00061E00E94B90160E08C2F0E948B016D2F9A
:1005000070E090E080E00E942F0260E08C2F0E945B
:10051000B9018BE990E00197F1F700E911E08C2F28
:100520000E946201892B81F401501109C1F78EEFFD
:100530009FEFDF91CF911F910F91FF90EF90DF9090
:10054000CF90BF90AF90089500E911E08C2F0E94EA
:100550006201019721F401501109C1F7E8CF18E2B7
:10056000D0E800E090E9E92EFF24F3948C2F0E945C
:100570006201892B29F481E0E81AF108B9F7D7CF95
:100580000E940A026B017C0180E9A82EBB24B3946F
:100590008C2F0E946201019729F481E0A81AB1080A
:1005A000B9F7C5CF0E940A026C197D098E099F090F
:1005B000693271058105910538F0E02FF0E0E052D5
:1005C000F94F80818D2B8083D69511F40F5FD0E891
:1005D000115041F690E080E0ACCF9091000189137A
:1005E0000BC0E8E6F0E0E4919FEF90930001E1306A
:1005F00049F028F0E23061F060E00C948B01109239
:100600006E00FACF90916F009D7F90936F00F4CFB2
:10061000909170009D7F9093700091E09093B00056
:100620009091B100987F94609093B1001092B300C4
:10063000E3CFAF92BF92CF92DF92EF92FF920F93F0
:100640001F93CF93DF936C017B018B01040F151F68
:10065000EB015E01AE18BF08C017D10759F06991D0
:10066000D601ED91FC910190F081E02DC601099534
:10067000892B79F7C501DF91CF911F910F91FF90E1
:10068000EF90DF90CF90BF90AF900895FC01538D15
:10069000448D252F30E0842F90E0821B930B54175C
:1006A00010F0CF96089501970895FC01918D828DE9
:1006B000981761F0A28DAE0FBF2FB11D5D968C9182
:1006C000928D9F5F9F73928F90E008958FEF9FEFC1
:1006D0000895FC01918D828D981731F0828DE80F7D
:1006E000F11D858D90E008958FEF9FEF0895FC0137
:1006F000918D228D892F90E0805C9F4F821B910904
:100700008F739927089582E595E00E94770321E091
:10071000892B09F420E0822F089580E090E0892B56
:1007200029F00E94830381110C9400000895FC01BC
:10073000A48DA80FB92FB11DA35ABF4F2C91848D42
:1007400090E001968F739927848FA689B7892C939F
:10075000A089B1898C91837080648C93938D848DF2
:10076000981306C00288F389E02D80818F7D8083F5
:100770000895EF92FF920F931F93CF93DF93EC01B5
:1007800081E0888F9B8D8C8D98131AC0E889F98938
:10079000808185FF15C09FB7F894EE89FF8960833B
:1007A000E889F98980818370806480839FBF81E0BC
:1007B00090E0DF91CF911F910F91FF90EF900895FE
:1007C000F62E0B8D10E00F5F1F4F0F731127E02ED9
:1007D0008C8D8E110CC00FB607FCFACFE889F98911
:1007E000808185FFF5CFCE010E949703F1CFEB8D7D
:1007F000EC0FFD2FF11DE35AFF4FF0829FB7F894E5
:100800000B8FEA89FB8980818062CFCFCF93DF9302
:10081000EC01888D8823B9F0AA89BB89E889F98918
:100820008C9185FD03C0808186FD0DC00FB607FC4D
:10083000F7CF8C9185FFF2CF808185FFEDCFCE0180
:100840000E949703E9CFDF91CF9108950F931F93F3
:10085000CF93DF93EC018B0188859985029749F44A
:100860006130710509F436C04CF560E001151105E1
:1008700091F188859985049749F40130110509F4AF
:1008800051C09CF50115110509F43BC08885998577
:10089000059709F0C5C00A30110508F0C1C0F8017C
:1008A000EC5AFB4F0C943025A604B004BE04D004CF
:1008B000E804EA04F004FA0408050E056230710544
:1008C00091F060E003301105A1F68C850E948B0148
:1008D00060E005C061E08C850E948B0161E08E853F
:1008E0000E948B01C6CF61E0F0CF0230110501F10B
:1008F0000330110559F661E08C850E948B0160E0A0
:100900001CC061E08C850E948B0160E08E850E9496
:100910008B0161E088890E948B0160E08A890E94D6
:100920008B01B4CF60E08C850E948B0161E0EECF3B
:1009300060E08C850E948B0161E08E850E948B01B6
:1009400060E088890E948B0161E0E8CF60E08C85DF
:100950000E948B0161E08E850E948B0161E009C0DD
:1009600060E08C850E948B0161E08E850E948B0186
:1009700060E088890E948B0160E00DC060E08C859A
:100980000E948B0161E08E850E948B0160E0888966
:100990000E948B0161E08A890E948B0161E011C095
:1009A00060E08C850E948B0161E08E850E948B0146
:1009B00060E088890E948B0161E08A890E948B0136
:1009C00060E08C89DF91CF911F910F910C948B0186
:1009D00061E0E7CF61E08C850E948B0160E0E5CFAC
:1009E00061E08C850E948B0160E08E850E948B0106
:1009F00061E0DFCF61E08C850E948B0160E08E8535
:100A00000E948B0161E088890E948B0160E0D5CF54
:100A100061E08C850E948B0160E09DCF60E0F9CFA2
:100A2000DF91CF911F910F9108955F926F927F9206
:100A30008F929F92AF92BF92CF92DF92EF92FF92EE
:100A40000F931F93CF93DF935C016901DA015C90F0
:100A5000232B19F4CC24CA94DC2C8A013A01660EAB
:100A6000771ED0E0C0E0F12CE12C87E0882E912C9D
:100A7000F50180819181D8016C910C2E01C0660F27
:100A80000A94EAF765296F77DC01ED91FC910190FA
:100A9000F081E02D0995BFEFEB1AFB0AF8016081A8
:100AA00070E0C4018C1B9D0B02C0759567958A95FB
:100AB000E2F7562E2196C730D10558F1CE14DF0447
:100AC00041F1D5018D919C91652D6F77DC01ED9100
:100AD000FC910190F081E02D0995BFEFEB1AFB0A24
:100AE000551C5524551C2797E6CFEC14FD0408F43B
:100AF000BFCFDF91CF911F910F91FF90EF90DF90CB
:100B0000CF90BF90AF909F908F907F906F905F90AD
:100B100008950F5F1F4F6016710639F7209749F34C
:100B2000EC14FD0430F7F5018081918161E070E003
:100B300001C0660FCA95EAF761506521DC01ED91AD
:100B4000FC910190F081E02DDF91CF911F910F91E9
:100B5000FF90EF90DF90CF90BF90AF909F908F90DD
:100B60007F906F905F9009941F93CF93DF9300D095
:100B7000CDB7DEB7182F7A83698380912F069091C5
:100B800030060097C9F0DC01ED91FC910190F081F5
:100B9000E02D1031B8F461157044A0F4612F606E3F
:100BA000099522E030E0AE014F5F5F4F62E070E0F8
:100BB0008FE296E00E9415050F900F90DF91CF9184
:100BC0001F91089560EF099580912F06909130064E
:100BD000DC01ED91FC910190F081E02D6FE609952B
:100BE00080912F0690913006DC01ED91FC910190EF
:100BF000F081E02D612F099522E030E0AE014F5FDA
:100C00005F4F62E070E08FE296E00E9415058091F0
:100C10002F0690913006DC01ED91FC910190F0815E
:100C2000E02D67EF0995C8CFEF92FF920F931F93C6
:100C3000CF93DF93C82F80912F06909130060097B5
:100C4000C9F17A018B01DC01ED91FC910190F081F9
:100C5000E02D60EF099580912F0690913006DC0120
:100C6000ED91FC910190F081E02D6C2F0995E70149
:100C70000E0D1F1DC017D10759F030E020E0AE0166
:100C800061E070E08FE296E00E9415052196F2CFB8
:100C900080912F0690913006DC01ED91FC9101903E
:100CA000F081E02D67EFDF91CF911F910F91FF90C1
:100CB000EF900994DF91CF911F910F91FF90EF90EA
:100CC0000895CF93DF93009729F1EC01C05CDF4FCB
:100CD000888199810097F1F0DC01ED91FC91019000
:100CE000F081E02D69EF099588819981DC01ED9112
:100CF000FC910190F081E02D62E009958881998155
:100D0000DC01ED91FC910190F081E02D65E0DF9137
:100D1000CF910994DF91CF910895CF92DF92EF9216
:100D2000FF920F931F93CF93DF93009709F463C053
:100D3000FC01E058FF4FE080EE2009F45CC0EC01BC
:100D4000C05CDF4FA881B981109709F454C0FC0141
:100D5000EF57FF4FC080D180F60111810081ED91E6
:100D6000FC9111970190F081E02D60EFCD01099584
:100D700088819981DC01ED91FC910190F081E02D59
:100D800069E7099588819981DC01ED91FC910190D9
:100D9000F081E02D602F099588819981DC01ED912A
:100DA000FC910190F081E02D612F0995F12C01E07B
:100DB00010E00F5F1F4FE016F10659F030E020E021
:100DC000A601400F511F61E070E0CE010E941505A1
:100DD000F0CF88819981DC01ED91FC910190F08147
:100DE000E02D67EFDF91CF911F910F91FF90EF9072
:100DF000DF90CF900994DF91CF911F910F91FF90D9
:100E0000EF90DF90CF90089520914F04260F332765
:100E1000331F21323105ECF420912805FC0190E0CC
:100E200080E0243069F082E00895A0914F04219180
:100E3000AC01435D5B4FA40FB52FB11D2C93019600
:100E4000861798F380914F04680F60934F0480E0F9
:100E5000089581E008951092280581E08093270588
:100E60001092020561E082E10E948B0161E083E162
:100E70000E948B01E9EBF0E080818E7F808380818E
:100E80008D7F808388E48093B80085E48093BC00E4
:100E90000895CF93DF9391E090932C048823B9F0C9
:100EA000C091B800D091BA008091BC008A7B809339
:100EB000BC0060E082E10E948B0160E083E10E945F
:100EC0008B010E942B07D093BA00C093B800DF912A
:100ED000CF9108958F929F92AF92BF92CF92DF925F
:100EE000EF92FF920F931F93CF93DF93D091510511
:100EF000D13208F0D7C0182FC09150050E940A02C5
:100F00006B017C018091280581116BC082E0809388
:100F10002805109327058FEF80932605109225054D
:100F2000D0932405A0E3B5E0E4E0F5E080E0D81339
:100F300091C01092030580910305CC0FC82BC0937C
:100F4000030580910205813009F088C010920205E6
:100F50000E940A026B017C01809103058093BB0013
:100F600080912A0590912B05A0912C05B0912D051B
:100F7000892B8A2B8B2BA1F00E940A0200912A0553
:100F800010912B0520912C0530912D056C197D09B0
:100F90008E099F09061717072807390708F442C06A
:100FA0008091BC0083FDD8CF85EC8093BC000E946B
:100FB0000A026B017C0180912805823009F450C03F
:100FC000809126058F3F09F46FC0809126058032FD
:100FD00009F46CC080912605803309F469C084E06F
:100FE00026C080912A0590912B05A0912C05B091E7
:100FF0002D05892B8A2B8B2B09F484CF0E940A02A2
:1010000080902A0590902B05A0902C05B0902D057E
:101010006C197D098E099F0986169706A806B906E0
:1010200008F070CF809129050E94490785E0109251
:101030002F051092510510922E05DF91CF911F912F
:101040000F91FF90EF90DF90CF90BF90AF909F9067
:101050008F9008959D9191938F5F69CF85EEA5CF75
:1010600080912A0590912B05A0912C05B0912D051A
:10107000892B8A2B8B2B09F49ECF0E940A020091A8
:101080002A0510912B0520912C0530912D056C1906
:101090007D098E099F09061717072807390708F0E9
:1010A0008ACFC0CF81E0C3CF80E0C1CF82E0BFCF85
:1010B00083E0BDCF089508950895E0912B048091B9
:1010C0002A04E81730F4F0E0E65FFB4F808190E0FF
:1010D00008958FEF9FEF089590912B0480912A043B
:1010E0002FEF3FEF981748F4E92FF0E0E65FFB4F52
:1010F000208130E09F5F90932B04C9010895809177
:101100002A0490912B04891B990B0895CF92DF92AA
:10111000EF92FF920F931F93CF93DF937C01CB014C
:101120008A0120912E05222389F0EB016B01C40E68
:10113000D51ECC15DD0569F06991D701ED91FC91C3
:101140000190F081E02DC7010995F3CF642F0E9433
:101150000407C801DF91CF911F910F91FF90EF908D
:10116000DF90CF900895CF93DF931F92CDB7DEB776
:10117000698320912E052223F9F020915105203218
:1011800058F021E030E0FC013383228390E080E0DE
:101190000F90DF91CF91089580912F05E82FF0E017
:1011A000E05DFA4F998190838F5F80932F05809344
:1011B000510581E090E0ECCF61E0CE0101960E9404
:1011C0000407F7CF90E080E00895DF92EF92FF925E
:1011D0000F931F93CF93DF93EC01D62E7A018901F1
:1011E00088818C3008F067C061E08D2D0E94B901C4
:1011F0008881282F30E0F901EE0FFF1FE20FF31F67
:10120000E554F94F9D2D9F736081607C692B60834D
:1012100020E232E02E193F0937FF02C02D5F3F4F19
:101220003595279535952795298320E639E0201BAC
:10123000310B37FF02C02D5F3F4F35952795359510
:1012400027952A832CE0622F0E94FC24829FB00104
:10125000112430E020E0AB01420F531FFA01EE0FE2
:10126000FF1FE40FF51FE554F94F908196FD16C05E
:101270002F5F3F4F2C30310571F781110FC0109255
:10128000800082E08093810010928500109284009B
:10129000B19A80916F00826080936F00E8818E2FF9
:1012A00090E0FC01EE0FFF1FE80FF91FE554F94F26
:1012B0008081806480838881DF91CF911F910F911D
:1012C000FF90EF90DF900895CF938630B0F421E047
:1012D00030E0082E02C0220F331F0A94E2F740913B
:1012E000BF045091C004672B51F4209530952423FE
:1012F00035233093C0042093BF04CF910895242B4D
:10130000352B3093C0042093BF04909108049111B1
:10131000F4CFC82F0E94F501BC018C2FCF910C9403
:10132000B4055F926F927F928F929F92AF92BF921D
:10133000CF92DF92EF92FF920F931F93CF93DF93A1
:10134000833008F061C0D1E0D80FDD0FDD0FDD0F75
:101350005D2ED53110F044E1542EC62F082FD85001
:101360008D2E912CC401880F991F9C0121513A4F59
:101370005901D12CC12C10E077247394D515C8F5F0
:101380008EEF8D0F8231F8F4F601E80DF91DEE585D
:10139000F94F90819230B8F48C2F872166246394A2
:1013A000811101C0612C7601EE0CFF1C913089F493
:1013B000172937E9E30EF11CF501EE0DFF1D862D0F
:1013C00090E091838083770CDF5F8FEFC81AD80A93
:1013D000D5CF882371F3F701E956FF4FEA0DFB1DC6
:1013E00080819181019729F362E08D2F0E94B901DC
:1013F000E0CF011119C0F8948BB16C2F68276C7F76
:10140000612368276BB97894DF91CF911F910F9179
:10141000FF90EF90DF90CF90BF90AF909F908F9014
:101420007F906F905F9008950130D1F4C123F894BC
:1014300095B1812F8F73809589239C2F9F73892B62
:1014400085B988B1612F62956695669563706095E0
:101450006823C295C695C695C370C62BC8B9D3CFAD
:101460001F70F89498B1812F880F880F8095892379
:10147000C123CC0FCC0FC82BF1CF8F929F92AF928C
:10148000BF92CF92DF92EF92FF920F931F93CF9371
:10149000DF93EB01843108F098C0082F10E0F801C9
:1014A000EE58F94F9081933009F49CC0943009F0C4
:1014B0008CC08250823108F081C0F801E051FC4FAD
:1014C000C080D12C7601EE0CFF1C4B01603282E013
:1014D00078070CF03EC0F701EC0DFD1DE251F94F0D
:1014E0008181A8E88A2E912C881A910887FD93940F
:1014F000880C991C880C991C092C000CAA08BB08A4
:10150000828128E532E0281B310987FD3395220FBF
:10151000331F220F331F032E000C440B550B2819C9
:1015200039094A095B09DB01653B710514F0A4EB3D
:10153000B0E0B7FF02C0B0E0A0E00E94B72324EB08
:1015400030E040E050E00E948D23820E931EA41EE6
:10155000B51EF701EC0DFD1DE251F94F20812C3035
:1015600068F5318188E890E0831B910937FD9395F8
:10157000880F991F880F991F881699067CF0328171
:1015800088E592E0831B910937FD9395880F991F99
:10159000880F991F881699060CF4C4010297880FCA
:1015A000991F4FB7F89430E0F901EE0FFF1FE20FDB
:1015B000F31FE554F94F928381834FBF000F111F32
:1015C000F801EA57F94FD183C083DF91CF911F9182
:1015D0000F91FF90EF90DF90CF90BF90AF909F90D2
:1015E0008F9008957B01D82F833041F08BEF800FCF
:1015F000823020F087EF800F833058F461E08D2F28
:101600000E94B901E114F10461F460E08D2F0E94A1
:101610008B01000F111FF801EA57F94FF182E082A8
:10162000D4CF8FEFE816F10411F461E0EFCFF801A9
:10163000E155FF4FE491E33021F148F4E130B9F096
:10164000E230D1F080E8E816F1047CF7DECFE73035
:1016500011F1E83041F1E430A9F780918000806217
:1016600080938000F0928B00E0928A00D2CF84B504
:10167000806884BDE7BCCDCF84B5806284BDE8BC02
:10168000C8CF80918000806880938000F0928900AC
:10169000E0928800BECF8091B00080688093B00057
:1016A000E092B300B6CF8091B00080628093B0002A
:1016B000E092B400AECF9EEF980F923180F4E82F05
:1016C000F0E0DF01AE58B94F9C91913041F4EE0F3C
:1016D000FF1FEA57F94F608371830C948B010895C3
:1016E000FF920F931F93CF93DF9300D0CDB7DEB758
:1016F000082F10E0F801E557FB4F9081F62EF922F4
:101700000C5F1B4F411104C0F80190819F1511F12E
:101710002F2D30E03A832983A0912F06B091300617
:101720001097B1F0682F6F706069ED91FC9111977F
:101730000190F081E02DCD01099522E030E0AE016D
:101740004F5F5F4F62E070E08FE296E00E94150508
:10175000F801F0820F900F90DF91CF911F910F91C0
:10176000FF900895833040F5282F30E0F901E257CB
:10177000FB4F6083672B01F125573B4FF9016081D7
:10178000811106C099B19C7F692341E00C94700BD4
:10179000813049F493B126B19F73F0E42F9F9001FB
:1017A0001124922BF1CF26B130E035952795359550
:1017B00027952F706223E9CF0895A82FB0E0A0519C
:1017C000BC4F9C91292F30E0F901EE0FFF1FE20F73
:1017D000F31FE251F94FE0812E2F30E0F901EE0FB7
:1017E000FF1FE20FF31FE554F94F80818F7B808349
:1017F0008091EE03981308C0992319F091509093AB
:10180000EE038FEF8C9308958823D9F3E091EF03D3
:10181000EF5FE093EF03F0E0EF56FC4F9083F1CFE2
:10182000FC0101900020E9F73197BF01681B790B9B
:10183000AC0181E70C941406CF93DF93DB01909108
:10184000EE039C3078F53091EF03682F70E0FB01D8
:10185000E051FC4F3323E1F0C32FD0E0CF56DC4FF3
:101860008881808331503093EF03808123E0829F11
:10187000C00111248251994F1A161B0674F41416D4
:1018800015065CF49A01AD01DF91CF910C94E50847
:1018900090839F5F9093EE03E8CF20E639E040E22B
:1018A00052E0F2CF8EE291E0DF91CF910C94100CD8
:1018B00085ED8093BC0080912A0590912B05A09125
:1018C0002C05B0912D050796A11DB11D23E0B695FD
:1018D000A795979587952A95D1F72091BC0024FD6F
:1018E00003C010922805089540912A0550912B05B8
:1018F00060912C0570912D05452B462B472B69F3E4
:101900000097A105B10541F02AE22A95F1F700C040
:101910000197A109B109E1CF809129050C944907EC
:101920009F92AF92BF92CF92DF92EF92FF920F936E
:101930001F93CF93DF93C82ED12CE601C151DA4F0C
:10194000FE01ED57FF4F90819F3709F4A3C09630F9
:1019500061F490910704992341F06630710529F0F4
:10196000109207049FEF909301017B01182F0EEF57
:10197000080F023108F564307105F1F0F601E0510D
:10198000FC4F80818C30C0F490E0FC01EE0FFF1F13
:10199000E80FF91FE251F94FE0818E2F90E0FC0132
:1019A000EE0FFF1FE80FF91FE554F94F808186FF06
:1019B00003C0812F0E94DD0B52EF952E910E85E022
:1019C000891558F061E070E032E0E316F10411F09F
:1019D00070E060E0892D0E9464090231C8F4E12FB3
:1019E000E695E695E695F0E0E557FB4F2081312F2F
:1019F000377081E090E001C0880F3A95EAF7E11472
:101A0000F10421F03BE0E316F10421F5822B808301
:101A10005601AA0CBB1CF501EA57F94F118210823E
:101A200080E1E816F10408F0EFC0F701E65EF24F3E
:101A30000C9430253E0D6B0D2D0D820DA10D040E65
:101A4000D80D040EFC0D040E4A0D560DEC0DE40DE0
:101A5000040EF40D80958223DACF35E03915D0F0ED
:101A6000023120F460E0812F0E94B901CD57DF4F91
:101A700088818F3779F082E088830CC0023150F47E
:101A800060E0812F0E94B901CD57DF4F88818F37E9
:101A900009F01882DF91CF911F910F91FF90EF9085
:101AA000DF90CF90BF90AF909F900895023190F754
:101AB00062E0812F0E94B901CD57DF4F88818F37B7
:101AC00011F08BE08883F501EA57F94F81E090E04F
:101AD00091838083DFCF0231E8F6FE01ED57FF4F9F
:101AE0008081833021F460E0812F0E948B0161E0CE
:101AF000812F0E94B901CD57DF4F88818F3751F276
:101B000081E0BACF133049F08BEF810F823028F09B
:101B100087EF810F833008F0BDCF61E0812F0E94F5
:101B2000B90161E0812F0E94B90160E0812F0E941C
:101B30008B01CD57DF4F88818F3709F4ABCF83E01E
:101B40009BCF023108F0A6CFCD57DF4F88818F376A
:101B500011F084E08883F601E051FC4F80818F3FD3
:101B6000A9F090E0FC01EE0FFF1FE80FF91FE25112
:101B7000F94FE0818E2F90E0FC01EE0FFF1FE80F80
:101B8000F91FE554F94F808186FD84CF4FEF5FEF59
:101B90006FEF7FEF812FDF91CF911F910F91FF901A
:101BA000EF90DF90CF90BF90AF909F900C941C0C63
:101BB0001251123008F06ECFCD57DF4F88818F372A
:101BC00009F468CF86E058CFCD57DF4F88818F3733
:101BD00009F460CF8DE050CFCD57DF4F88818F372C
:101BE00009F458CF8CE048CFCD57DF4F88818F372D
:101BF00009F450CF8FE040CFCD57DF4F88818F372A
:101C000009F448CF88E038CF82E491E0DF91CF91AA
:101C10001F910F91FF90EF90DF90CF90BF90AF900A
:101C20009F900C94100C0F931F93CF93DF9381E040
:101C30008093080480910704882329F010920704F8
:101C40008FEF8093010110928E0410928B041092FA
:101C5000040410928F0410928C04109205041092C8
:101C6000900410928D041092060400EF13E0C0E07F
:101C7000DFEF82EF8C0F62E070E08630C0F18EEF14
:101C80008C0F61E070E0823190F58C2F0E94ED02A4
:101C9000F801D1938F01CF5FC43159F71092F0044E
:101CA0001092EF04E8EDF4E0A1EEB4E08FE7819349
:101CB0002D913D91232B21F0ED012297198218825D
:101CC00094E0EE3DF90799F71092C0041092BF041A
:101CD0001092EF031092EE031092D3041092D204EC
:101CE00010920804DF91CF911F910F9108958C2FCE
:101CF0000E94900CCDCF4F925F926F927F928F9205
:101D00009F92AF92BF92DF92EF92FF920F931F9339
:101D1000CF93DF93D82E8B01D42FC22F6F3F76073E
:101D200009F490C081E080932E05D0925005109266
:101D30002F05109251058FEA96E00E94B3088C2F70
:101D40000E946A078091EC039091ED038230910527
:101D500038F0880F991F880F991F05970197F1F7A1
:101D60000E940A024B015C018091280581116CC020
:101D7000CD2FD13208F0C0E281E080932805809316
:101D800027059FEF90932605109225059C0F9093B1
:101D9000240580930305909103058D2D880F892BD1
:101DA0008093030580910205813009F09EC0109256
:101DB00002050E940A024B015C0180910305809399
:101DC000BB0080912A0590912B05A0912C05B09124
:101DD0002D05892B8A2B8B2BA1F00E940A024090A3
:101DE0002A0550902B0560902C0570902D056819E0
:101DF00079098A099B09461657066806790608F488
:101E000044C08091BC0083FDD8CF85EC8093BC009A
:101E10000E940A024B015C0180912805813009F47F
:101E200066C0809125058C1710F4C0912505A4E0AB
:101E3000B5E0EAE0F4E080E08C1761F19D919193C8
:101E40008F5FFACF00E08CCF80912A0590912B050F
:101E5000A0912C05B0912D05892B8A2B8B2B09F491
:101E600083CF0E940A0240902A0550902B05609073
:101E70002C0570902D05681979098A099B09461669
:101E800057066806790608F06FCF809129050E94F1
:101E90004907C0E010922B04C0932A04ED2EF12CC8
:101EA0008C2F90E0E816F9060CF043C083E591E032
:101EB0000E94100CD0929E0300939F030EE913E042
:101EC000C8018E5993408E159F05D4F50F5F1F4FA3
:101ED00090912A0480912B04981791F18FEA96E053
:101EE0000E946C08F8018183EBCF85EE8FCF809143
:101EF0002A0590912B05A0912C05B0912D05892BD9
:101F00008A2B8B2B09F488CF0E940A0240902A0565
:101F100050902B0560902C0570902D05681979095B
:101F20008A099B09461657066806790608F074CF99
:101F3000ACCF8E159F050CF0BDCF80E791E0B8CFF8
:101F4000DE5F6D2F70E04EE953E087E7DF91CF91C0
:101F50001F910F91FF90EF90DF90BF90AF909F90F7
:101F60008F907F906F905F904F900C9414062F92FB
:101F70003F924F925F926F927F928F929F92AF9219
:101F8000BF92CF92DF92EF92FF920F931F93CF9366
:101F9000DF93CDB7DEB7C454D1090FB6F894DEBFD6
:101FA0000FBECDBF80558B3208F056C07A01162F78
:101FB000E82FF0E0E252F04F0C9430258C1109101C
:101FC0002C102C102C102C102C102C102C102C1031
:101FD0002C102C102C102C102C10C0122C102C108B
:101FE000D5142C100E172C102C102C102C10AF12F6
:101FF0002C1002122C106E122C10DF114A112C1012
:1020000038152C102C102C1013102C100C112C1017
:10201000B01180EF0E94DD0082E50E94DD0081E0CA
:102020000E94DD0057C2DA0111969C91119795FF2D
:1020300005C08CE891E00E94100C0EC0FA0180816E
:1020400031E096FB222720F923279871983009F474
:102050004DC0E0F4992341F1CC5BDF4F0FB6F8940B
:10206000DEBF0FBECDBFDF91CF911F910F91FF90CB
:10207000EF90DF90CF90BF90AF909F908F907F9028
:102080006F905F904F903F902F900895903109F49A
:102090004AC0983109F72091010112160CF477C05B
:1020A0008FEF80930101D8CF30932E058093500598
:1020B00010922F051092510502E0011778F4F701F4
:1020C000E00FF11D61816795662767958081680F34
:1020D0008FEA96E00E94B3080E5FEFCF81E00E9486
:1020E0006A0783E191E00197F1F7B6CF12969C91D0
:1020F000129713964C91663079F4B0E84B9FB0017B
:102100001124690F711D4581479544274795948196
:10211000490F0E947B0EA0CF479544274795490F52
:102120006FEF7FEFF6CFE0910101E7301CF08CEA12
:1021300091E081CF12963C91129713969C91663054
:10214000F9F4B0E89B9FA0011124430F511DD70162
:1021500015969C91159797959927979514963C916C
:10216000930FEF5FE0930101B5E0EB02F001112462
:10217000E956FB4F808352834183938324836CCF42
:10218000979599279795930F4FEF5FEFEACF90E0E0
:10219000622F022E000C770B35E0492F50E06417B8
:1021A000750764F0349FF001359FF00D1124E95656
:1021B000FB4F4081481719F09F5FEFCF90E085E01B
:1021C000492F50E0641775071CF19830F8F4FA01B4
:1021D00031968E9FD0018F9FB00D1124A956BB4F11
:1021E0003C91849FF001859FF00D1124E956FB4F2F
:1021F000308311964D915C911297528341831396CF
:102200003C911397338314963C9134839F5FD8CFCE
:1022100021502093010120CF623088F0FA018181A2
:10222000F0E88F9F90011124DA018C91820F932F97
:10223000911D009721F09093ED038093EC03809122
:102240000704811109CF10E08EEE810F823028F44F
:1022500066E070E0812F0E94900C1F5F1431A1F79F
:1022600081E08093070410922B0410922A041092AC
:102270002F05109251050E942B078AE598E0909354
:102280004E0480934D048BE598E090935204809324
:102290005104E2CE653008F4DFCEFA0110818EEFF2
:1022A000810F823108F0D8CE0181C280D380F480C2
:1022B000E12FF0E0E051FC4F80818C30C0F490E0E1
:1022C000FC01EE0FFF1FE80FF91FE251F94FE0810B
:1022D0008E2F90E0FC01EE0FFF1FE80FF91FE55471
:1022E000F94F808186FF03C0812F0E94DD0BF0E84B
:1022F000FF9EA00111244D0D511D20E8C29EB0018A
:102300001124600F711D812F0E941C0C64E070E08D
:10231000812F0E94900CA0CEDA0111968C91B0E82A
:102320008B9F90011124FA018081820F932F911DC0
:1023300090939604809395042FB7F8948091FA04B3
:102340009091FB04A091FC04B091FD042FBF8093F9
:10235000910490939204A0939304B09394047CCE40
:10236000623008F479CEDA0111968C91B0E88B9F37
:1023700090011124FA018081820F932F911D009703
:10238000D9F09093030180930201209102013091D2
:10239000030188E290E0B9010E9408257093F204DD
:1023A0006093F10488E998E0B9010E9408257093D0
:1023B000D5046093D40450CE81E090E0E2CF623047
:1023C00008F44ACEDA0111966C91119770E0123040
:1023D000A1F012968C91B0E88B9FC0011124682B5C
:1023E000792B133051F0FA01838190E090E4899FBA
:1023F000902D88271124682B792BD7018C910E946E
:102400003D0A2ACE80EF0E94DD008CE60E94DD00AE
:102410001EEF84EF810F8630E0F582E00E94DD0040
:102420008AE00E94DD008DEF810F8230A0F189EFFC
:10243000810F8330B0F52FC0123158F780E00E9431
:10244000DD0081E00E94DD008BE00E94DD0081E084
:102450000E94DD0081E00E94DD0081E00E94DD003D
:1024600088E00E94DD0081E00E94DD008CE00E9497
:10247000DD0081E00E94DD008FE00E94DD0081E050
:102480000E94DD008DE00E94DD0081E00E94DD0001
:10249000C0CF113041F683E00E94DD0088E00E9449
:1024A000DD00123130F484E00E94DD008EE00E94F5
:1024B000DD0080EF810F823030F486E00E94DD0085
:1024C00081E00E94DD008FE70E94DD001F5F123176
:1024D00009F0B2CF87EF0E94DD00BECD662309F47C
:1024E000BBCDFA01008180EF0E94DD008EE60E94E4
:1024F000DD00802F0E94DD00043160F710E0F8015C
:10250000EE58F94F80810E94DD00000F111F9801E5
:102510002A57394F7901D9018C918F770E94DD00BC
:10252000F701808191819C012078232B39F0880F5D
:10253000892F881F990B8F770E94DD00F801EA57D9
:10254000F94F808191819C012227307C232B11F24D
:10255000990F880B990F982F881F8F7761CD80EF87
:102560000E94DD008AE60E94DD0012EF8FE7163040
:1025700008F4812F0E94DD001F5F1630B9F7AACF43
:10258000DA019C9111968C911197911108C21396C2
:102590008C90B0E88B9E40011124FA012281820EBA
:1025A000911CA580F0E8AF9E90011124DA011496E9
:1025B000AC90A20EB32EB11C909100019817C9F0F7
:1025C0009F3F09F049CD80930001E8E6F0E01491C7
:1025D0001F3F09F441CD113009F490C008F471C0D7
:1025E000123009F4ADC017FD37CD61E00E94B9018A
:1025F0000AC0E8E6F0E0149117FD2ECD61E00E94DC
:10260000B901112319F0123009F060C12401092C1D
:10261000000C6608770860E072E18AE790E0A301A9
:1026200092010E948D2325962CAF3DAF4EAF5FAF38
:10263000259769017A01B1E0CB1AD108E108F108C8
:10264000EFEFCE16D104E104F10409F00CF417C148
:1026500060E472E48FE090E0A30192010E948D2378
:1026600069017A01F1E0CF1AD108E108F1081230CE
:1026700009F08CC082E02FEFC216D104E104F1040E
:10268000C9F0C4F060E970ED83E090E0A30192012D
:102690000E948D2369017A0161E0C61AD108E10820
:1026A000F1088FEFC816D104E104F10411F00CF029
:1026B00009C483E09091B100987F892B8093B10089
:1026C000E5C014BC15BC94B5926094BD95B59160FD
:1026D00095BD282F30E0F901E957FF4FE491F0E074
:1026E000EE0FFF1FED58FF4F45915491F901E5564C
:1026F000FF4FE491E093DF0310E080CF1092800061
:102700001092810090918100986090938100909147
:102710008100916090938100282F30E0F901E95702
:10272000FF4FE491F0E0EE0FFF1FED58FF4F459192
:102730005491F901E556FF4FE491E093DE035ECF3B
:102740001092B0001092B1009091B00092609093FE
:10275000B0009091B10091609093B100282F30E0CB
:10276000F901E957FF4FE491F0E0EE0FFF1FED583C
:10277000FF4F459154915093750440937404F901AF
:10278000E556FF4FE491E093760438CF9FEFC916EA
:10279000D104E104F10409F00CF496C068E478EE89
:1027A00081E090E0A30192010E948D2369017A01EA
:1027B000A1E0CA1AD108E108F108112309F49BC36A
:1027C0009FEFC916D104E104F10409F00CF491C3A0
:1027D00062E17AE780E090E0A30192010E948D23FC
:1027E00069017A01F1E0CF1AD108E108F10811235B
:1027F00009F44BC386E0EFEFCE16D104E104F104F7
:1028000009F008F457CF2596CCACDDACEEACFFACAC
:1028100025979AE0F594E794D794C7949A95D1F7C1
:10282000B1E0CB1AD108E108F10887E043CF64E2B8
:1028300074EF80E090E0A30192010E948D23690172
:102840007A01B1E0CB1AD108E108F10885E0EFEF99
:10285000CE16D104E104F10409F008F42BCF62E1B3
:102860007AE780E090E0A30192010E948D23690144
:102870007A01B1E0CB1AD108E108F108BBCF81E0C1
:10288000111118CF95B5987F892B85BD2FEF3FEF9C
:10289000A901A114B10409F053C0113009F45DC0BD
:1028A000123009F46CC01111D7CBC7BC2093E403DC
:1028B0003093E5034093E6035093E70380916E0065
:1028C000826080936E00C8CB82E0DACF2401092CAD
:1028D000000C6608770860E072E18AE790E0A301E7
:1028E00092010E948D2369017A0161E0C61AD10824
:1028F000E108F10891E0C114D10481E0E806F10497
:1029000084F068E478EE81E090E0A30192010E94F7
:102910008D2369017A0191E0C91AD108E108F10813
:1029200093E0113009F0B2CF80918100887F892B2C
:10293000809381002FEF3FEFA901A114B10469F04A
:102940009401220F331FD5010E94362528EE33E073
:1029500040E050E00E94F623A0CFD0928900C092C0
:1029600088002093E0033093E1034093E203509307
:10297000E30380916F00826080936F006DCBC09203
:10298000B3002093770430937804409379045093F4
:102990007A04809170008260809370005DCB9130EA
:1029A00009F05ACB0E94ED0257CB2091EF043091F1
:1029B000F004263031050CF058C0DA018C91809378
:1029C000EB0311969C9111979093EA031396CC9088
:1029D000B0E8CB9EA0011124F701C280C40ED52E11
:1029E000D11C0D2C000CEE08FF0828523B4FD901DA
:1029F0008C936CE070E00E94900C6CE070E0809131
:102A0000EA030E94900C8BE090E00E943D258C012F
:102A10002091EA038091EB03F8018083218391E008
:102A2000281390E0D80112969C9361E00E94B901AE
:102A300060E0F80181810E94B901D8011796CD921A
:102A4000DD92ED92FC921A978091EF049091F00440
:102A5000FC01EE0FFF1FEF51FB4F11830083019626
:102A60009093F0048093EF04F7CA8DEB91E0E3CAF2
:102A7000FA0180818111EAC0A280F0E8AF9EC00116
:102A80001124DA011196AC901197A80EB92EB11C41
:102A900013960C911397802E912C1496CC90D12CD8
:102AA0006530A9F58AE190E00E943D257C01FC019A
:102AB0001386128611821082168A178A108E118E42
:102AC000B782A68295868486D786C68661E0802FE7
:102AD0000E94B90161E0F70186850E94B901D70122
:102AE00051961C921E92509753961C921E9252978A
:102AF00055961C921E92549782E090E019969C93F2
:102B00008E931897F092E903E092E803A5CA673024
:102B1000E9F5FA014580512C6680712C8AE190E03C
:102B20000E943D257C01DC011B961C921E921A9787
:102B30001D921C92FC01168A178A108E118EB78284
:102B4000A68295868486D786C686518A408A738AED
:102B5000628A61E0802F0E94B90161E0D7011E9670
:102B60008C910E94B90161E0F70180890E94B9014E
:102B700061E0D70152968C910E94B901F701158A44
:102B8000148A84E090E091878087BCCF8AEF91E03F
:102B90000E94100C612F70E090E080E02AE0AE010E
:102BA0004F5F5F4F7A010E942D22F70101900020B4
:102BB000E9F731978F010E191F09B8016F5F7F4F39
:102BC00090E080E00E9462266C01009741F0DC01F9
:102BD0001C92B7010E9428270115110541F51982A1
:102BE0008AE292E00E94100CC7010E94100CC114EE
:102BF000D10409F431CAC601CC5BDF4F0FB6F8949B
:102C0000DEBF0FBECDBFDF91CF911F910F91FF901F
:102C1000EF90DF90CF90BF90AF909F908F907F907C
:102C20006F905F904F903F902F900C94D9250F3369
:102C3000110510F00FE310E0A801B601C7010E94D2
:102C40002F27F701E00FF11F1082CACF813009F062
:102C5000CCC0C090E803D090E903C114D10409F4BA
:102C6000C1C00581F0E80F9FC0011124DA0114965C
:102C70000C911497080F192F111D16967C90F601D0
:102C800026813781032E000C440B550B60E077E85A
:102C900083E993E00E948D23CA01B901D7011296FE
:102CA0008C901297912CB12CA12C37E0880C991C98
:102CB000AA1CBB1C3A95D1F713962C91139730E0C0
:102CC00050E040E0EEE0220F331F441F551FEA950D
:102CD000D1F7822A932AA42AB52A11962C9114019D
:102CE0002501222AA20191010E948D23D60112966C
:102CF0002D933D934D935C931597711003C01195DF
:102D000001951109780117FF04C0EE24FF24E01A91
:102D1000F10A101611060CF04DC081E090E0F601AA
:102D20009183808304E010E02AE0A22EB12CE1140C
:102D3000F10409F491C90E940A02F60146885788F5
:102D4000608C718C9B01AC01241935094609570927
:102D500042805380648075802415350546055705EB
:102D600030F3668B778B808F918F8285938520815E
:102D700031812130310529F501969387828726819B
:102D800037818217930711F413861286B1E0EB1A8C
:102D9000F108F6018285938520853185B5012530BE
:102DA000310509F0B8010E941C25BC01C6010E9432
:102DB0002604BDCF012B09F4B5CFD6011D921C927C
:102DC000B1CF892B21F48681978193878287D601A1
:102DD0001A968D919C911B9701971B969C938E93AD
:102DE0001A97D4CF82E392E026C98230A1F4809171
:102DF000E8039091E903892B59F080EF0E94DD00F0
:102E000082E70E94DD0085E00E94DD0080E008C9C5
:102E10008EE592E010C983E992E00DC92091D204B9
:102E20003091D304263031056CF5DA0111969C916E
:102E3000492F50E04631510531F04B30510519F022
:102E400081EC92E0F8C8F7018081F901E553FB4F6E
:102E500080832B533B4FD9019C936FE070E00E941D
:102E6000900C6091D2047091D3046F5F7F4F709388
:102E7000D3046093D2048091D4049091D5040E942D
:102E80001C2595CA86EF92E0D6C884E02FEFC216C3
:102E9000D104E104F10409F008F4F4CC2596CCAC9B
:102EA000DDACEEACFFAC25978AE0F594E794D794BF
:102EB000C7948A95D1F7F1E0CF1AD108E108F1085B
:102EC00085E0E0CC68E478EE81E090E0A301920137
:102ED0000E948D2369017A0161E0C61AD108E108D8
:102EE000F1088FEFC816D104E104F10411F00CF0E1
:102EF0009ECC84E0DFCB83E0AFEFCA16D104E104BF
:102F0000F10409F00CF4BECC63CC1F920F920FB603
:102F10000F9211242F933F938F939F93AF93BF935F
:102F20008091FA049091FB04A091FC04B091FD04FF
:102F30003091F90423E0230F2D3758F50196A11D98
:102F4000B11D2093F9048093FA049093FB04A0939D
:102F5000FC04B093FD048091FE049091FF04A091C5
:102F60000005B09101050196A11DB11D8093FE04DD
:102F70009093FF04A0930005B0930105BF91AF911A
:102F80009F918F913F912F910F900FBE0F901F90A7
:102F9000189526E8230F0296A11DB11DD2CF1F92CE
:102FA0000F920FB60F9211242F933F934F935F937D
:102FB0006F937F938F939F93AF93BF93EF93FF9301
:102FC0008091770490917804A0917904B0917A046B
:102FD000892B8A2B8B2BD1F190917604E09174048C
:102FE000F091750480818927808380917704909186
:102FF0007804A0917904B0917A04181619061A067B
:103000001B069CF48091770490917804A091790438
:10301000B0917A040197A109B10980937704909344
:103020007804A0937904B0937A04FF91EF91BF9153
:10303000AF919F918F917F916F915F914F913F9150
:103040002F910F900FBE0F901F9018958091000147
:103050000E94ED02EACF1F920F920FB60F92112439
:103060002F933F934F935F936F937F938F939F9390
:10307000AF93BF93EF93FF9382E595E00E94970390
:10308000FF91EF91BF91AF919F918F917F916F9140
:103090005F914F913F912F910F900FBE0F901F9016
:1030A00018951F920F920FB60F9211242F938F93A2
:1030B0009F93EF93FF93E0916205F0916305808108
:1030C000E0916805F091690582FD1BC090818091B7
:1030D0006B058F5F8F7320916C05821741F0E09133
:1030E0006B05F0E0EE5AFA4F958F80936B05FF91D8
:1030F000EF919F918F912F910F900FBE0F901F9086
:1031000018958081F4CF1F920F920FB60F92112461
:103110002F933F934F935F936F937F938F939F93DF
:10312000AF93BF93EF93FF938091B900887F803670
:1031300009F44AC0F0F5883209F4A7C018F58031C7
:1031400009F49BC0B8F4882309F4F9C0883009F465
:1031500094C0FF91EF91BF91AF919F918F917F911B
:103160006F915F914F913F912F910F900FBE0F90F4
:103170001F901895883109F488C0803251F78093E8
:10318000260514C0803409F49DC040F48033B9F39F
:103190008833F9F68093260585ECB0C0803509F4B4
:1031A00085C0883509F496C0883499F60E94580C79
:1031B000D0CF883909F48CC038F5883729F050F41D
:1031C000883611F0803729F683E080932805109225
:1031D000730457C0883809F47BC0803919F08038EF
:1031E00009F0B7CF80917304803208F071C0E0918C
:1031F000730481E08E0F809373048091BB00F0E034
:10320000ED5AFB4F80833DC0803B39F0E0F4803ABB
:1032100009F479C0883A09F09CCF84E080932805AE
:103220001092500410924F04E0914D04F0914E041E
:10323000099580914F0481110FC081E080934F0464
:1032400010922D0409C0803C09F4A6CF883C09F4F3
:10325000A3CF883B09F07DCFE091500481E08E0F31
:1032600080935004F0E0E35DFB4F80818093BB00CE
:103270009091500480914F0429C080910305809360
:10328000BB0085EC8093BC0064CF909125058091B4
:103290002405981758F5E091250581E08E0F80935D
:1032A0002505F0E0EC5FFA4F8081E9CFE09125053C
:1032B00081E08E0F809325058091BB00F0E0EC5FEC
:1032C000FA4F808390912505809124059817C8F2C4
:1032D00085E8D8CFE091250581E08E0F8093250504
:1032E0008091BB00F0E0EC5FFA4F8083809127056E
:1032F00081115CCF81E08093020584EA8093BC0059
:103300001092280526CF85EC8093BC0010922805EA
:1033100080917304803230F4E0917304F0E0ED5A50
:10332000FB4F10826091730470E0E0915104F091C2
:10333000520483E594E00995109273040ACF109229
:10334000260534CF1F920F920FB60F9211242F93A0
:103350003F934F935F936F937F938F939F93AF931D
:10336000BF93CF93DF93EF93FF9380910904C091B4
:10337000DF06D0E087FF24C0109285001092840001
:10338000809109048F5F8093090480910904082EBD
:10339000000C990B8C179D0724F4809109048C3044
:1033A000C4F18091840090918500049680349C49FA
:1033B00008F47AC08091840090918500049676C0CC
:1033C00080910904082E000C990B8C179D07C4F6F8
:1033D000E09109048E2FEE0F990BFC01EE0FFF1FF9
:1033E000E80FF91FE554F94F808186FFC9CFE091BE
:1033F00009048E2FEE0F990BFC01EE0FFF1FE80F53
:10340000F91FE554F94F808160E08F730E948B01B2
:10341000B7CF2091840030918500E09109048E2F70
:10342000EE0F990BFC01EE0FFF1FE80FF91FE5549B
:10343000F94F81819281820F931F9093890080932D
:103440008800E09109048E2FEE0F990BFC01EE0F1E
:10345000FF1FE80FF91FE554F94F808186FF11C067
:10346000E09109048E2FEE0F990BFC01EE0FFF1F68
:10347000E80FF91FE554F94F808161E08F730E94D6
:103480008B01FF91EF91DF91CF91BF91AF919F9110
:103490008F917F916F915F914F913F912F910F90FD
:1034A0000FBE0F901F90189580E49CE990938900BF
:1034B000809388008FEF80930904E3CF1092550525
:1034C0001092540548EE53E060E070E040935605DA
:1034D0005093570560935805709359058EE091E01D
:1034E000909353058093520585EC90E090935F058F
:1034F00080935E0584EC90E0909361058093600575
:1035000080EC90E0909363058093620581EC90E0FD
:10351000909365058093640582EC90E09093670535
:103520008093660586EC90E090936905809368052A
:1035300010926B0510926C0510926D0510926E053D
:103540008FEE95E01092300610922F06909333067E
:103550008093320620E430E0309335062093340621
:1035600010923606109237061092390610923806DD
:1035700010923A0610923C0610923B0610923E06BC
:1035800010923D061092400610923F06109242069D
:10359000109241061092440610924306109246067D
:1035A00010924506109248061092470610924E0659
:1035B00010924D061092500610924F06109252062D
:1035C0001092510610925406109253061092620601
:1035D000109261061092310610926F0610927106D9
:1035E0001092700621E02093AE062DE830E0309373
:1035F00056062093550627E930E03093580620936D
:10360000570621EA30E030935A06209359062BEAF8
:1036100030E030935C0620935B0625EB30E030937E
:103620005E0620935D062FEB30E03093600620931A
:103630005F0629EC30E030936406209363062AECA1
:1036400030E030936606209365062DE836E030932F
:1036500068062093670690934A068093490621E600
:1036600036E030936A062093690690934C06809367
:103670004B0685ED90E090936C0680936B0610925C
:10368000B2061092B1064093B3065093B40660930D
:10369000B5067093B60680E291E09093B0068093F1
:1036A000AF06EEEEF6E02FEF48EB5BE08091DF0631
:1036B0008C3048F591E0980F9093DF06808390E07E
:1036C000DC01AA0FBB1FA80FB91FA554B94F129652
:1036D0005C934E931197339687E0E231F80731F708
:1036E0001092E5061092EA061092EB061092EC0694
:1036F0001092ED061092E6061092E7061092E80688
:103700001092E90608952083E6CFCF93DF93CDB7DB
:10371000DEB72C970FB6F894DEBF0FBECDBF7894FE
:1037200084B5826084BD84B5816084BD85B58260C6
:1037300085BD85B5816085BD80916E008160809377
:103740006E001092810080918100826080938100E0
:1037500080918100816080938100809180008160F0
:10376000809380008091B10084608093B10080914B
:10377000B00081608093B00080917A008460809373
:103780007A0080917A00826080937A0080917A003A
:10379000816080937A0080917A00806880937A00BB
:1037A0001092C10084E180936F0680917006909121
:1037B00071060E94D92500916F0610E0C80101969C
:1037C0000E943D259093710680937006FC01E00FE6
:1037D000F11F108221E0DC012C9362E0F62E11969D
:1037E000FC92A801425051096FE773E002960E94D3
:1037F0002F278DE39AE0909386048093850481E9D6
:1038000099E0909384048093830484E699E09093F4
:1038100082048093810482EB9BE0909380048093E8
:103820007F0480E99CE090937E0480937D048BE587
:103830009BE090937C0480937B0487EB9FE09093C4
:1038400088048093870483E19EE090938A048093A8
:103850008904E0916205F0916305F082E0916205D0
:10386000F09163051082E0915E05F0915F05108292
:10387000E0916005F091610580E1808310926A0516
:10388000E0916605F091670586E08083E09164052C
:10389000F0916505808180618083E0916405F091FD
:1038A0006505808188608083E0916405F0916505FD
:1038B000808180688083E0916405F0916505808156
:1038C0008F7D80838091AE0681114CC061E08DE0D8
:1038D0000E94B90162ED70E080E090E00E942F024A
:1038E00061E08DE00E948B0168E270E080E090E092
:1038F0000E942F0260E08DE00E948B016AEF70E071
:1039000080E090E00E942F0262ED70E080E090E0A5
:103910000E942F0261E08DE00E948B0168E270E05E
:1039200080E090E00E942F0260E08DE00E948B0119
:1039300062ED70E080E090E00E942F0261E08DE097
:103940000E948B0168E270E080E090E00E942F020C
:1039500060E08DE00E948B016DE770E080E090E018
:103960000E942F0282E595E090936E0680936D068B
:103970009093300680932F060E94130E48EE242E5B
:1039800043E0342E812C50EC952E59E7A52E54ECB3
:10399000B52E80918E04882349F069B180918B0403
:1039A00068236C7F40E080E00E94700B80918F0460
:1039B000882379F063B186B16F73B0E48B9FC00147
:1039C0001124682B80918C04682340E081E00E94E0
:1039D000700B80919004882359F066B180918D041A
:1039E0008F7066956695682340E082E00E94700BB8
:1039F00011E080916D0690916E06DC01ED91FC91D5
:103A00000084F185E02D0995892B09F4D3C18091BB
:103A10006D0690916E06DC01ED91FC910284F385B8
:103A2000E02D09959C018F3F980719F3982F8091FD
:103A30003A06882309F492C0973F09F07EC010929D
:103A40003A06A0913206B09133066C916137C1F10C
:103A5000693709F05CC0E0916706F091680630971D
:103A600041F280913B0690913C068330910560F4D1
:103A700030E020E050E040E070E060E080914906F6
:103A800090914A060995B5CFBD016D5F7F4F0397B1
:103A90000E941A01BC016D5F7F4F80E00E94EA0026
:103AA000E0913206F09133069F012D5F3F4F428136
:103AB00050E0618170E0E0916706F0916806DECF2A
:103AC0008091630690916406892B09F492CFBD0121
:103AD0006F5F7F4F80913B0690913C0601970E945B
:103AE0001A01BC016F5F7F4F80E00E94EA00609185
:103AF0003206709133066F5F7F4FE0916306F0915D
:103B0000640680914F0690915006099572CFE0911E
:103B10006506F0916606309709F46BCF9D012F5F23
:103B20003F4F40913B0650913C06415051098091D6
:103B300051069091520609955CCF60913B067091B9
:103B40003C06822F0E94EA0080913B0690913C0641
:103B5000019690933C0680933B064BCF60913806CC
:103B6000709139066115710509F4B1C027FDAFC028
:103B7000615071097093390660933806822F0E9454
:103B8000EA008091380690913906892B09F031CFEF
:103B900080913606882309F42CCF803D09F483C038
:103BA00040F4803949F1803C09F469C0109236062E
:103BB00020CF843FE1F1853F09F44DC0803EB1F74D
:103BC000E0915506F0915606309781F3A0913206A8
:103BD000B09133064C9120E8429FC0011124119608
:103BE0004C91480F592F511D6091370680913D0629
:103BF00090913E060995DACFE0915706F09158066C
:103C00003097A1F2A0913206B09133064C9130E882
:103C1000439FC001112411964C91480F592F511DFB
:103C20006091370680913F0690914006E3CFE09186
:103C30005D06F0915E06309709F4B8CFA091320688
:103C4000B09133064C9150E011966C9180914506ED
:103C500090914606CFCFE0915F06F09160063097D5
:103C600009F4A4CFA0913206B09133064C9150E0F4
:103C700011966C918091470690914806BBCFE091D8
:103C80005906F0915A06309709F490CFA091320668
:103C9000B09133064C9150E0609137068091410617
:103CA00090914206A7CFE0915B06F0915C063097B9
:103CB00009F47CCFA0913206B09133064C9150E0CC
:103CC00060913706809143069091440693CF903FD0
:103CD00030F4822F8F7080933706922F907F903F21
:103CE00009F442C0A0F4903CC1F160F4903909F0AD
:103CF00080CEA2E0B0E0B0933906A093380690934E
:103D0000360677CE903D49F1903E99F372CE993FB9
:103D100009F444C028F48CE0890F823050F369CE56
:103D20009F3F09F066CE1092390610923806109225
:103D300036061092370690E080E0209134063091EC
:103D4000350682179307B8F4E0913206F0913306F6
:103D5000E80FF91F10820196F0CFE1E0F0E0F09358
:103D60003906E0933806CBCF10933A0610923C0602
:103D700010923B063ECE10923A0610923C061092EC
:103D80003B06E0916B06F0916C0680915306909192
:103D90005406309709F42DCE09952BCEE091690693
:103DA000F0916A06309709F424CE80914B069091E9
:103DB0004C06F2CF8FB7F8940091FA041091FB04EF
:103DC0002091FC043091FD048FBF8091F504909107
:103DD000F604A091F704B091F804409102015091CB
:103DE000030170E060E0081B190B2A0B3B0B401726
:103DF00051076207730708F023C3840F951FA61F9E
:103E0000B71F8093F5049093F604A093F704B09342
:103E1000F8048091F3049091F4049C012F5F3F4FCC
:103E20003093F4042093F3042091F1043091F204D0
:103E3000281739070CF0CDC01092F4041092F30447
:103E4000C090EF04D090F004C114D10409F4C1C0B3
:103E5000E090ED04F090EE04F701EE0FFF1FEF513C
:103E6000FB4F00811181D80112968C911297882303
:103E700021F061E08C910E94B90160E0F80180813D
:103E80000E948B0183E090E00197F1F761E0D80197
:103E90008C910E948B0183E290E00197F1F760E042
:103EA000F80180810E948B01D80112968C911297A3
:103EB000882321F060E08C910E94B9010E940A02DF
:103EC000F8016383748385839683D80111968C915E
:103ED0000E946201892BA1F40E940A02F80143802A
:103EE0005480658076806419750986099709478032
:103EF000508461847284461657066806790628F74E
:103F00000E940A02D80113966D937D938D939C9322
:103F10001697F80181810E946201892BC1F00E94ED
:103F20000A02D80113964D905D906D907C90169783
:103F3000641975098609970917964D905D906D90E3
:103F40007C901A97461657066806790610F70E9465
:103F50000A02F8010381148125813681E092E00490
:103F6000F1E0CF1AD108EC14FD040CF093C04FEF30
:103F7000E41AF40AF092EE04E092ED04CB01801B07
:103F8000910B68E370E00E940825862F8F7780935D
:103F9000DF04660F672F661F770B71956093DE0451
:103FA00080EF0E94DD0083E60E94DD00E091E004E6
:103FB000F0E0E852FB4F80810E94DD008091DF0439
:103FC0000E94DD008091DE040E94DD0087EF0E94E8
:103FD000DD008091D6049091D7049C012F5F3F4F64
:103FE0003093D7042093D6042091D4043091D50483
:103FF000281739070CF026C12091D2043091D30440
:104000002115310509F41EC18091D104482F50E0DB
:10401000FA01E553FB4FF080FA01EB53FB4FE080D0
:104020001092D7041092D604215031094217530739
:10403000B4F58F5F8093D1041092C1041092C20432
:104040001092C3041092C4048091E50696E1E9122F
:1040500060C1882309F0F89461E08F2D0E9462020C
:104060008C018091E506882309F0789401151105EB
:10407000C9F08092E6069092E706A092E806B09218
:10408000E9068092EA069092EB06A092EC06B092C6
:10409000ED0699C01092EE041092ED046FCF1092CD
:1040A000D104CACF1091E106C090E0066091E0060D
:1040B0007091E10676276727762790E080E00E94DE
:1040C0006E222DEC3CEC4CEC5DE30E94CF22609321
:1040D000E6067093E7068093E8069093E906009160
:1040E000E206D090E306602F6F7770E0762F6627A8
:1040F0006D0D711D6115710509F0EBC01092EA0696
:104100001092EB061092EC061092ED061C0D010FBA
:10411000D00E8091E4060FEF1FEFD81254C08091AB
:10412000E6069091E706A091E806B091E9068D8336
:104130009E83AF83B887AE014F5F5F4FBC01CD0157
:104140000E94C8242B013C0169817A818B819C816A
:104150000E9494246093C10420E030E048EC52E4D3
:10416000C301B2010E94CF220E9494246093C20432
:104170008091EA069091EB06A091EC06B091ED06D5
:1041800089879A87AB87BC87AE014F5F5F4FBC01C1
:10419000CD010E94C8242B013C0169817A818B8169
:1041A0009C810E9494246093C30420E030E048EC9A
:1041B00052E4C301B2010E94CF220E949424609372
:1041C000C40410E000E080EF0E94DD0085E60E945C
:1041D000DD008F2D0E94DD008E2D0E94DD00C801C4
:1041E00017FF03C09195819591090E94DD0020E0A1
:1041F00030E0A9016D817E818F8198850E94C32462
:1042000087FDDEC080E00E94DD0020E030E0A901F3
:1042100069857A858B859C850E94C32487FDD2C0E1
:1042200080E00E94DD0001EC14E0D8018D918D0149
:104230000E94DD00E5ECF4E0E017F107B1F787EF4D
:104240000E94DD000FEE15E082EFF82EF5E0FF157D
:10425000C8F0F801ED57FF4F8081823099F48091CA
:10426000BF049091C0040F2C02C0959587950A94C5
:10427000E2F780FF07C08F2D0E94F501BC018F2D52
:104280000E94B405F3940F5F1F4F26E0F212DECFB9
:104290008091010187FD98C010E0212F30E08091CE
:1042A0000101082E000C990B821793070CF48CC0A7
:1042B00045E0429FF001439FF00D1124E956FB4F6A
:1042C000618172812481438180810E947B0E1F5F06
:1042D000E4CF072E000C880B990B0E9470222DEC66
:1042E0003CEC4CEC5DE30E94CF226093EA067093B5
:1042F000EB068093EC069093ED0607FF07CF9058EE
:104300006093EA067093EB068093EC069093ED06BB
:10431000FDCE882309F0F89462E18F2D0E9462029D
:104320008C018091E506882309F078940115110528
:1043300009F09FCE1091E006C090E1066C2D70E070
:1043400090E080E00E9470222DEC3CEC4CEC5DE3B0
:104350000E94CF222B013C01612F70E090E080E0B1
:104360000E9470229B01AC01C301B2010E9428246B
:104370006093E6067093E7068093E8069093E9065B
:104380000091E206D090E306602F6F7770E090E036
:1043900080E00E9470222B013C016D2D70E090E0C6
:1043A00080E00E9470222DEC3CEC4CEC5DE30E941E
:1043B000CF229B01AC01C301B2010E94282495CFFA
:1043C00081E021CF81E02DCF8091950490919604DA
:1043D000892BB1F18FB7F8944091FA045091FB0406
:1043E0006091FC047091FD048FBF809191049091C5
:1043F0009204A0919304B0919404481B590B6A0B4A
:104400007B0B2091950430919604229DC001239D41
:10441000900D329D900D1124B0E0A0E08417950717
:10442000A607B70768F40E94130E88E198E00FB65C
:10443000F894A895809360000FBE90936000FFCF22
:1044400080E090E0892B09F4A4CA0E9483038823AA
:1044500009F49FCA0E9400009CCABB272A3051F46D
:10446000992342F4BDE290958095709561957F4FB8
:104470008F4F9F4F0C943D22BB27FA01A62F621746
:10448000710581059105330B30FB66F0AA27660F95
:10449000771F881F991FAA1FA21710F0A21B6395F0
:1044A0003850A9F7A05DAA3308F0A95DA19336F7AB
:1044B000B111B1931082CA010C945E22DC01FC019F
:1044C000672F71917723E1F7329704C07C916D9348
:1044D00070836291AE17BF07C8F30895E89409C0CE
:1044E00097FB3EF490958095709561957F4F8F4F27
:1044F0009F4F9923A9F0F92F96E9BB279395F6953D
:10450000879577956795B795F111F8CFFAF4BB0FBA
:1045100011F460FF1BC06F5F7F4F8F4F9F4F16C01E
:10452000882311F096E911C0772321F09EE8872FA8
:10453000762F05C0662371F096E8862F70E060E064
:104540002AF09A95660F771F881FDAF7880F9695DD
:10455000879597F90895990F0008550FAA0BE0E881
:10456000FEEF16161706E807F907C0F01216130635
:10457000E407F50798F0621B730B840B950B39F475
:104580000A2661F0232B242B252B21F408950A26DB
:1045900009F4A140A6958FEF811D811D08950E9409
:1045A000E2220C9453230E94452338F00E944C23AE
:1045B00020F0952311F00C943C230C9442231124F9
:1045C0000C9487230E94642370F3959FC1F3950F89
:1045D00050E0551F629FF001729FBB27F00DB11D87
:1045E000639FAA27F00DB11DAA1F649F6627B00D17
:1045F000A11D661F829F2227B00DA11D621F739F00
:10460000B00DA11D621F839FA00D611D221F749F0D
:104610003327A00D611D231F849F600D211D822F54
:10462000762F6A2F11249F5750409AF0F1F088237B
:104630004AF0EE0FFF1FBB1F661F771F881F9150A8
:104640005040A9F79E3F510580F00C943C230C94F8
:1046500087235F3FE4F3983ED4F38695779567957B
:10466000B795F795E7959F5FC1F7FE2B880F911DD2
:104670009695879597F9089597F99F6780E870E078
:1046800060E008959FEF80EC089500240A941616C8
:10469000170618060906089500240A941216130630
:1046A000140605060895092E0394000C11F48823BE
:1046B00052F0BB0F40F4BF2B11F460FF04C06F5FDA
:1046C0007F4F8F4F9F4F089557FD9058440F551FB0
:1046D00059F05F3F71F04795880F97FB991F61F084
:1046E0009F3F79F087950895121613061406551FFB
:1046F000F2CF4695F1DF08C0161617061806991F67
:10470000F1CF86957105610508940895E894BB275B
:1047100066277727CB0197F90895052E97FB1EF49E
:1047200000940E94A42357FD07D00E94F62307FCA3
:1047300003D04EF40C94A4235095409530952195C8
:104740003F4F4F4F5F4F08959095809570956195BD
:104750007F4F8F4F9F4F08950E941824A59F900D63
:10476000B49F900DA49F800D911D11240895B7FF53
:104770000C94AC230E94AC23821B930B08952F92C0
:104780003F924F925F926F927F928F929F92AF92E1
:10479000BF92CF92DF92EF92FF920F931F93CF932E
:1047A000DF93CDB7DEB7CA1BDB0B0FB6F894DEBFC5
:1047B0000FBECDBF09942A88398848885F846E84EB
:1047C0007D848C849B84AA84B984C884DF80EE8035
:1047D000FD800C811B81AA81B981CE0FD11D0FB63E
:1047E000F894DEBF0FBECDBFED010895A1E21A2EF1
:1047F000AA1BBB1BFD010DC0AA1FBB1FEE1FFF1F85
:10480000A217B307E407F50720F0A21BB30BE40BD4
:10481000F50B661F771F881F991F1A9469F760951B
:104820007095809590959B01AC01BD01CF010895D5
:10483000A29FB001B39FC001A39F700D811D1124E1
:10484000911DB29F700D811D1124911D0895505826
:10485000BB27AA270E943F240C9453230E94452380
:1048600038F00E944C2320F039F49F3F19F426F4CD
:104870000C9442230EF4E095E7FB0C943C23E92FC3
:104880000E94642358F3BA176207730784079507D9
:1048900020F079F4A6F50C9486230EF4E0950B2E07
:1048A000BA2FA02D0B01B90190010C01CA01A00182
:1048B0001124FF27591B99F0593F50F4503E68F1DD
:1048C0001A16F040A22F232F342F4427585FF3CF1E
:1048D000469537952795A795F0405395C9F77EF4EF
:1048E0001F16BA0B620B730B840BBAF09150A1F038
:1048F000FF0FBB1F661F771F881FC2F70EC0BA0FBE
:10490000621F731F841F48F4879577956795B79545
:10491000F7959E3F08F0B0CF9395880F08F0992740
:10492000EE0F9795879508950E946C2388F09F5706
:1049300098F0B92F9927B751B0F0E1F0660F771FC3
:10494000881F991F1AF0BA95C9F714C0B13091F0B9
:104950000E948623B1E008950C948623672F782F58
:104960008827B85F39F0B93FCCF38695779567957E
:10497000B395D9F73EF490958095709561957F4FEA
:104980008F4F9F4F08950E94AB2208F48FEF089538
:10499000FA01DC01AA0FBB1F9B01AC01BF5728F431
:1049A000222733274427507820C0B75190F4AB2FEB
:1049B0000024469537952795011CA395D2F3002036
:1049C00071F0220F331F441FB395DAF30ED00C940D
:1049D000272461307105A0E88A07B94630F49B01AD
:1049E000AC016627772788279078309621F02083BE
:1049F0003183428353830895991B79E004C0991F42
:104A0000961708F0961B881F7A95C9F78095089528
:104A1000AA1BBB1B51E107C0AA1FBB1FA617B707E4
:104A200010F0A61BB70B881F991F5A95A9F7809500
:104A30009095BC01CD01089597FB072E16F40094C4
:104A400007D077FD09D00E94082507FC05D03EF469
:104A5000909581959F4F0895709561957F4F08952A
:104A6000EE0FFF1F0590F491E02D09940E94182489
:104A7000B7FF0895821B930B08950F931F93CF9355
:104A8000DF938230910510F482E090E0E09114070A
:104A9000F091150730E020E0B0E0A0E0309799F405
:104AA0002115310509F44AC0281B390B2430310582
:104AB000D8F58A819B816115710589F1FB0193838A
:104AC0008283FE0111C04081518102811381481708
:104AD0005907E0F04817590799F4109761F01296BA
:104AE0000C93129713961C933296CF01DF91CF91BE
:104AF0001F910F9108950093140710931507F4CF99
:104B00002115310551F04217530738F0A901DB0197
:104B10009A01BD01DF01F801C1CFEF01F9CF9093F8
:104B2000150780931407CDCFFE01E20FF31F819389
:104B300091932250310939832883D7CF20911207CE
:104B400030911307232B41F4209106013091070186
:104B5000309313072093120720910401309105012F
:104B60002115310541F42DB73EB740910801509110
:104B70000901241B350BE0911207F0911307E2178E
:104B8000F307A0F42E1B3F0B2817390778F0AC0170
:104B90004E5F5F4F2417350748F04E0F5F1F50934D
:104BA000130740931207819391939FCFF0E0E0E0C9
:104BB0009CCFCF93DF930097E9F0FC0132971382EB
:104BC0001282A0911407B0911507ED0130E020E0AA
:104BD0001097A1F420813181820F931F2091120739
:104BE000309113072817390709F061C0F0931307B4
:104BF000E0931207DF91CF910895EA01CE17DF0706
:104C0000E8F54A815B819E0141155105B1F7E90143
:104C1000FB83EA8349915991C40FD51FEC17FD0717
:104C200061F4808191810296840F951FE901998337
:104C30008883828193819B838A83F0E0E0E01296EF
:104C40008D919C9113970097B9F52D913C911197F7
:104C5000CD010296820F931F209112073091130706
:104C60002817390739F6309751F510921507109229
:104C70001407B0931307A0931207BCCFD383C2834A
:104C800040815181840F951FC817D90761F44E5F89
:104C90005F4F88819981480F591F518340838A81D2
:104CA0009B81938382832115310509F0B0CFF09366
:104CB0001507E09314079ECFFD01DC01C0CF1382DE
:104CC0001282D7CFB0E0A0E0E8E6F6E20C94C12370
:104CD0008C01009751F4CB010E943D258C01C80145
:104CE000CDB7DEB7E0E10C94DD23FC01E60FF71F42
:104CF0009C0122503109E217F30708F49DC0D90145
:104D0000CD91DC911197C617D70798F0C530D10522
:104D100030F3CE0104978617970708F3C61BD70B0D
:104D20002297C193D1936D937C93CF010E94D92593
:104D3000D6CF5B01AC1ABD0A4C018C0E9D1EA09112
:104D40001407B0911507512C412CF12CE12C109730
:104D500031F580911207909113078815990509F094
:104D60005CC04616570608F058C080910401909127
:104D70000501009741F48DB79EB74091080150910D
:104D80000901841B950BE817F90708F055C0F0934B
:104D90001307E0931207F90171836083A0CF8D910F
:104DA0009C91119712966C90129713967C90139782
:104DB000A815B90559F56C0142E0C40ED11CCA14FE
:104DC000DB0420F1AC014A195B09DA011296159750
:104DD00080F06282738251834083D9016D937C930A
:104DE000E114F10471F0D7011396FC93EE9312973E
:104DF00076CF22968C0F9D1FF90191838083F3015A
:104E0000EFCFF0931507E093140769CF48165906C2
:104E100008F42C017D01D3019ACFCB010E943D25DE
:104E20007C01009749F0AE01B8010E941F27C8011C
:104E30000E94D925870153CF10E000E050CFFB013D
:104E4000DC0102C001900D9241505040D8F7089506
:104E5000FB01DC0101900D920020E1F70895FB01B8
:104E6000DC014150504048F001900D920020C9F7FC
:104E700001C01D9241505040E0F70895F894FFCFD3
:104E8000FFFF130000001607800000000000B903B8
:104E90001903460306047703550369030000000065
:104EA000B3088608E2085C087F086C085D084D615D
:104EB0007820736572766F732061747461636865BE
:104EC0006400556E6B6E6F776E2070696E206D6F2B
:104ED0006465004932433A20546F6F206D616E79EA
:104EE0002062797465732072656365697665640014
:104EF0004932433A20546F6F206665772062797497
:104F000065732072656365697665640031302D6272
:104F100069742061646472657373696E67206E6F73
:104F20007420737570706F7274656400746F6F2095
:104F30006D616E7920717565726965730050494EB7
:104F4000475F434F4E464947204572726F723A2081
:104F50004578636565646564206E756D6265722071
:104F60006F6620737570706F727465642070696EFF
:104F700067206465766963657300535445505045F6
:104F80005220434F4E464947204572726F723A2075
:104F900057726F6E67204E756D626572206F662066
:104FA000617267756D656E74730061726763203D31
:104FB000200053544550504552204F5045524154C3
:104FC00045204572726F723A204D4F544F52204E19
:104FD0004F5420434F4E4649475552454400535481
:104FE0004550504552204649524D57415245205652
:104FF000455253494F4E204572726F723A204E4FC0
:10500000204D4F544F525320434F4E46494755521F
:105010004544005354455050455220434F4E464955
:1050200047204572726F723A20554E4B4E4F574E85
:10503000205354455050455220434F4D4D414E440E
:10504000004552524F523A20554E4B4E4F574E202C
:1050500053454E534F5220545950452C2056414CE5
:1050600049442053454E534F52532041524520311D
:10507000312C203232004448545F434F4E4649475A
:10508000204572726F723A20457863656564656485
:10509000206E756D626572206F6620737570706F1B
:1050A000727465642044485420646576696365734E
:1050B00000433A5C55736572735C6A696164615C54
:1050C000446F63756D656E74735C41726475696E6F
:1050D0006F5C4669726D6174614578707265737357
:1050E0002D312E322E305C6578616D706C65735C8D
:1050F0004669726D617461457870726573735C4660
:1051000069726D617461457870726573732E696E32
:025110006F002E
:00000001FF
